{
  "contractName": "ManufacturerRole",
  "abi": [
    {
      "inputs": [],
      "payable": false,
      "stateMutability": "nonpayable",
      "type": "constructor"
    },
    {
      "anonymous": false,
      "inputs": [
        {
          "indexed": true,
          "name": "account",
          "type": "address"
        }
      ],
      "name": "ManufacturerAdded",
      "type": "event"
    },
    {
      "anonymous": false,
      "inputs": [
        {
          "indexed": true,
          "name": "account",
          "type": "address"
        }
      ],
      "name": "ManufacturerRemoved",
      "type": "event"
    },
    {
      "constant": true,
      "inputs": [
        {
          "name": "account",
          "type": "address"
        }
      ],
      "name": "isManufacturer",
      "outputs": [
        {
          "name": "",
          "type": "bool"
        }
      ],
      "payable": false,
      "stateMutability": "view",
      "type": "function"
    },
    {
      "constant": false,
      "inputs": [
        {
          "name": "account",
          "type": "address"
        }
      ],
      "name": "addManufacturer",
      "outputs": [],
      "payable": false,
      "stateMutability": "nonpayable",
      "type": "function"
    },
    {
      "constant": false,
      "inputs": [],
      "name": "renounceManufacturer",
      "outputs": [],
      "payable": false,
      "stateMutability": "nonpayable",
      "type": "function"
    }
  ],
  "bytecode": "0x608060405234801561001057600080fd5b506100293361002e640100000000026401000000009004565b6101e8565b61004f8160006100956401000000000261030a179091906401000000009004565b8073ffffffffffffffffffffffffffffffffffffffff167f561138658ca49a8540dc70dcfe64c9026c1c5b9344642242dd6562970f9c127860405160405180910390a250565b600073ffffffffffffffffffffffffffffffffffffffff168173ffffffffffffffffffffffffffffffffffffffff16141515156100d157600080fd5b6100ea8282610154640100000000026401000000009004565b1515156100f657600080fd5b60018260000160008373ffffffffffffffffffffffffffffffffffffffff1673ffffffffffffffffffffffffffffffffffffffff16815260200190815260200160002060006101000a81548160ff0219169083151502179055505050565b60008073ffffffffffffffffffffffffffffffffffffffff168273ffffffffffffffffffffffffffffffffffffffff161415151561019157600080fd5b8260000160008373ffffffffffffffffffffffffffffffffffffffff1673ffffffffffffffffffffffffffffffffffffffff16815260200190815260200160002060009054906101000a900460ff16905092915050565b610495806101f76000396000f300608060405260043610610057576000357c0100000000000000000000000000000000000000000000000000000000900463ffffffff16806317d4a4911461005c5780635f8a5afa146100b7578063de07f34e146100fa575b600080fd5b34801561006857600080fd5b5061009d600480360381019080803573ffffffffffffffffffffffffffffffffffffffff169060200190929190505050610111565b604051808215151515815260200191505060405180910390f35b3480156100c357600080fd5b506100f8600480360381019080803573ffffffffffffffffffffffffffffffffffffffff16906020019092919050505061012e565b005b34801561010657600080fd5b5061010f6101b7565b005b60006101278260006101c290919063ffffffff16565b9050919050565b61013733610111565b15156101ab576040517f08c379a000000000000000000000000000000000000000000000000000000000815260040180806020018281038252601b8152602001807f4163636f756e74206973206e6f74204d616e756661637475726572000000000081525060200191505060405180910390fd5b6101b481610256565b50565b6101c0336102b0565b565b60008073ffffffffffffffffffffffffffffffffffffffff168273ffffffffffffffffffffffffffffffffffffffff16141515156101ff57600080fd5b8260000160008373ffffffffffffffffffffffffffffffffffffffff1673ffffffffffffffffffffffffffffffffffffffff16815260200190815260200160002060009054906101000a900460ff16905092915050565b61026a81600061030a90919063ffffffff16565b8073ffffffffffffffffffffffffffffffffffffffff167f561138658ca49a8540dc70dcfe64c9026c1c5b9344642242dd6562970f9c127860405160405180910390a250565b6102c48160006103ba90919063ffffffff16565b8073ffffffffffffffffffffffffffffffffffffffff167f2fed5abf6a80d6dfe30b4895481b2fc5d7dce5f8f7b931832f4a2947d5040c7f60405160405180910390a250565b600073ffffffffffffffffffffffffffffffffffffffff168173ffffffffffffffffffffffffffffffffffffffff161415151561034657600080fd5b61035082826101c2565b15151561035c57600080fd5b60018260000160008373ffffffffffffffffffffffffffffffffffffffff1673ffffffffffffffffffffffffffffffffffffffff16815260200190815260200160002060006101000a81548160ff0219169083151502179055505050565b600073ffffffffffffffffffffffffffffffffffffffff168173ffffffffffffffffffffffffffffffffffffffff16141515156103f657600080fd5b61040082826101c2565b151561040b57600080fd5b60008260000160008373ffffffffffffffffffffffffffffffffffffffff1673ffffffffffffffffffffffffffffffffffffffff16815260200190815260200160002060006101000a81548160ff02191690831515021790555050505600a165627a7a72305820bef04e2804eb8219850c1e1486df73b9d846040433316b475bf05cd0e60e0d550029",
  "source": "pragma solidity ~0.4.24;\r\n\r\nimport './Roles.sol';\r\n\r\ncontract ManufacturerRole {\r\n    \r\n    using Roles for Roles.Role;\r\n    \r\n    event ManufacturerAdded(address indexed account);\r\n    event ManufacturerRemoved(address indexed account);\r\n    \r\n    Roles.Role private manufacturers;\r\n    \r\n    constructor() public {\r\n        _addManufacturer(msg.sender);\r\n    }\r\n    \r\n    modifier onlyManufacturer() {\r\n        require(isManufacturer(msg.sender), \"Account is not Manufacturer\");\r\n        _;\r\n    }\r\n    \r\n    function isManufacturer(address account) public view returns(bool) {\r\n        return manufacturers.has(account);\r\n    }\r\n    \r\n    function _addManufacturer(address account) internal {\r\n        manufacturers.add(account);\r\n        emit ManufacturerAdded(account);\r\n    }\r\n    \r\n    function _removeManufacturers(address account) internal {\r\n        manufacturers.remove(account);\r\n        emit ManufacturerRemoved(account);\r\n    }\r\n    \r\n    function addManufacturer(address account) public onlyManufacturer {\r\n        _addManufacturer(account);\r\n    }\r\n    \r\n    function renounceManufacturer() public {\r\n        _removeManufacturers(msg.sender);\r\n    }\r\n    \r\n}",
  "sourcePath": "C:\\Users\\murad.makhashin\\Desktop\\nd1309-Project-6b-Example-Template\\project-6\\contracts\\coffeeaccesscontrol\\ManufacturerRole.sol",
  "compiler": {
    "name": "solc",
    "version": "0.4.25+commit.59dbf8f1.Emscripten.clang"
  },
  "schemaVersion": "2.0.2",
  "updatedAt": "2019-03-17T07:22:04.071Z"
}