{
  "contractName": "SupplyChain",
  "abi": [
    {
      "constant": true,
      "inputs": [
        {
          "name": "account",
          "type": "address"
        }
      ],
      "name": "isManufacturer",
      "outputs": [
        {
          "name": "",
          "type": "bool"
        }
      ],
      "payable": false,
      "stateMutability": "view",
      "type": "function"
    },
    {
      "constant": true,
      "inputs": [
        {
          "name": "account",
          "type": "address"
        }
      ],
      "name": "isCustomer",
      "outputs": [
        {
          "name": "",
          "type": "bool"
        }
      ],
      "payable": false,
      "stateMutability": "view",
      "type": "function"
    },
    {
      "constant": true,
      "inputs": [
        {
          "name": "account",
          "type": "address"
        }
      ],
      "name": "isRetailer",
      "outputs": [
        {
          "name": "",
          "type": "bool"
        }
      ],
      "payable": false,
      "stateMutability": "view",
      "type": "function"
    },
    {
      "constant": false,
      "inputs": [
        {
          "name": "account",
          "type": "address"
        }
      ],
      "name": "addManufacturer",
      "outputs": [],
      "payable": false,
      "stateMutability": "nonpayable",
      "type": "function"
    },
    {
      "constant": false,
      "inputs": [],
      "name": "renounceOwnership",
      "outputs": [],
      "payable": false,
      "stateMutability": "nonpayable",
      "type": "function"
    },
    {
      "constant": true,
      "inputs": [],
      "name": "owner",
      "outputs": [
        {
          "name": "",
          "type": "address"
        }
      ],
      "payable": false,
      "stateMutability": "view",
      "type": "function"
    },
    {
      "constant": false,
      "inputs": [
        {
          "name": "account",
          "type": "address"
        }
      ],
      "name": "addRetailer",
      "outputs": [],
      "payable": false,
      "stateMutability": "nonpayable",
      "type": "function"
    },
    {
      "constant": true,
      "inputs": [],
      "name": "isOwner",
      "outputs": [
        {
          "name": "",
          "type": "bool"
        }
      ],
      "payable": false,
      "stateMutability": "view",
      "type": "function"
    },
    {
      "constant": false,
      "inputs": [],
      "name": "renounceCustomer",
      "outputs": [],
      "payable": false,
      "stateMutability": "nonpayable",
      "type": "function"
    },
    {
      "constant": false,
      "inputs": [
        {
          "name": "account",
          "type": "address"
        }
      ],
      "name": "addCustomer",
      "outputs": [],
      "payable": false,
      "stateMutability": "nonpayable",
      "type": "function"
    },
    {
      "constant": false,
      "inputs": [],
      "name": "renounceRetailer",
      "outputs": [],
      "payable": false,
      "stateMutability": "nonpayable",
      "type": "function"
    },
    {
      "constant": false,
      "inputs": [],
      "name": "renounceManufacturer",
      "outputs": [],
      "payable": false,
      "stateMutability": "nonpayable",
      "type": "function"
    },
    {
      "constant": false,
      "inputs": [
        {
          "name": "newOwner",
          "type": "address"
        }
      ],
      "name": "transferOwnership",
      "outputs": [],
      "payable": false,
      "stateMutability": "nonpayable",
      "type": "function"
    },
    {
      "inputs": [],
      "payable": true,
      "stateMutability": "payable",
      "type": "constructor"
    },
    {
      "anonymous": false,
      "inputs": [
        {
          "indexed": false,
          "name": "upc",
          "type": "uint256"
        }
      ],
      "name": "Manufactured",
      "type": "event"
    },
    {
      "anonymous": false,
      "inputs": [
        {
          "indexed": false,
          "name": "upc",
          "type": "uint256"
        }
      ],
      "name": "Assembled",
      "type": "event"
    },
    {
      "anonymous": false,
      "inputs": [
        {
          "indexed": false,
          "name": "upc",
          "type": "uint256"
        }
      ],
      "name": "Packed",
      "type": "event"
    },
    {
      "anonymous": false,
      "inputs": [
        {
          "indexed": false,
          "name": "upc",
          "type": "uint256"
        }
      ],
      "name": "ForSale",
      "type": "event"
    },
    {
      "anonymous": false,
      "inputs": [
        {
          "indexed": false,
          "name": "upc",
          "type": "uint256"
        }
      ],
      "name": "Sold",
      "type": "event"
    },
    {
      "anonymous": false,
      "inputs": [
        {
          "indexed": false,
          "name": "upc",
          "type": "uint256"
        }
      ],
      "name": "Shipped",
      "type": "event"
    },
    {
      "anonymous": false,
      "inputs": [
        {
          "indexed": false,
          "name": "upc",
          "type": "uint256"
        }
      ],
      "name": "Received",
      "type": "event"
    },
    {
      "anonymous": false,
      "inputs": [
        {
          "indexed": false,
          "name": "upc",
          "type": "uint256"
        }
      ],
      "name": "Purchased",
      "type": "event"
    },
    {
      "anonymous": false,
      "inputs": [
        {
          "indexed": true,
          "name": "account",
          "type": "address"
        }
      ],
      "name": "CustomerAdded",
      "type": "event"
    },
    {
      "anonymous": false,
      "inputs": [
        {
          "indexed": true,
          "name": "account",
          "type": "address"
        }
      ],
      "name": "CustomerRemoved",
      "type": "event"
    },
    {
      "anonymous": false,
      "inputs": [
        {
          "indexed": true,
          "name": "account",
          "type": "address"
        }
      ],
      "name": "RetailerAdded",
      "type": "event"
    },
    {
      "anonymous": false,
      "inputs": [
        {
          "indexed": true,
          "name": "account",
          "type": "address"
        }
      ],
      "name": "RetailerRemoved",
      "type": "event"
    },
    {
      "anonymous": false,
      "inputs": [
        {
          "indexed": true,
          "name": "account",
          "type": "address"
        }
      ],
      "name": "ManufacturerAdded",
      "type": "event"
    },
    {
      "anonymous": false,
      "inputs": [
        {
          "indexed": true,
          "name": "account",
          "type": "address"
        }
      ],
      "name": "ManufacturerRemoved",
      "type": "event"
    },
    {
      "anonymous": false,
      "inputs": [
        {
          "indexed": true,
          "name": "oldOwner",
          "type": "address"
        },
        {
          "indexed": true,
          "name": "newOwner",
          "type": "address"
        }
      ],
      "name": "TransferOwnership",
      "type": "event"
    },
    {
      "constant": false,
      "inputs": [],
      "name": "kill",
      "outputs": [],
      "payable": false,
      "stateMutability": "nonpayable",
      "type": "function"
    },
    {
      "constant": false,
      "inputs": [
        {
          "name": "_upc",
          "type": "uint256"
        },
        {
          "name": "_originManufacturerID",
          "type": "address"
        },
        {
          "name": "_originManufacturerName",
          "type": "string"
        },
        {
          "name": "_originManufacturerInformation",
          "type": "string"
        },
        {
          "name": "_originManufacturerLatitude",
          "type": "string"
        },
        {
          "name": "_originManufacturerLongitude",
          "type": "string"
        },
        {
          "name": "_productNotes",
          "type": "string"
        }
      ],
      "name": "manufactureItem",
      "outputs": [],
      "payable": false,
      "stateMutability": "nonpayable",
      "type": "function"
    },
    {
      "constant": false,
      "inputs": [
        {
          "name": "_upc",
          "type": "uint256"
        }
      ],
      "name": "assembleItem",
      "outputs": [],
      "payable": false,
      "stateMutability": "nonpayable",
      "type": "function"
    },
    {
      "constant": false,
      "inputs": [
        {
          "name": "_upc",
          "type": "uint256"
        }
      ],
      "name": "packItem",
      "outputs": [],
      "payable": false,
      "stateMutability": "nonpayable",
      "type": "function"
    },
    {
      "constant": false,
      "inputs": [
        {
          "name": "_upc",
          "type": "uint256"
        },
        {
          "name": "_price",
          "type": "uint256"
        }
      ],
      "name": "sellItem",
      "outputs": [],
      "payable": false,
      "stateMutability": "nonpayable",
      "type": "function"
    },
    {
      "constant": false,
      "inputs": [
        {
          "name": "_upc",
          "type": "uint256"
        }
      ],
      "name": "buyItem",
      "outputs": [],
      "payable": true,
      "stateMutability": "payable",
      "type": "function"
    },
    {
      "constant": false,
      "inputs": [
        {
          "name": "_upc",
          "type": "uint256"
        }
      ],
      "name": "shipItem",
      "outputs": [],
      "payable": false,
      "stateMutability": "nonpayable",
      "type": "function"
    },
    {
      "constant": false,
      "inputs": [
        {
          "name": "_upc",
          "type": "uint256"
        }
      ],
      "name": "receiveItem",
      "outputs": [],
      "payable": false,
      "stateMutability": "nonpayable",
      "type": "function"
    },
    {
      "constant": false,
      "inputs": [
        {
          "name": "_upc",
          "type": "uint256"
        }
      ],
      "name": "purchaseItem",
      "outputs": [],
      "payable": false,
      "stateMutability": "nonpayable",
      "type": "function"
    },
    {
      "constant": true,
      "inputs": [
        {
          "name": "_upc",
          "type": "uint256"
        }
      ],
      "name": "fetchItemBufferOne",
      "outputs": [
        {
          "name": "itemSKU",
          "type": "uint256"
        },
        {
          "name": "itemUPC",
          "type": "uint256"
        },
        {
          "name": "ownerID",
          "type": "address"
        },
        {
          "name": "originManufacturerID",
          "type": "address"
        },
        {
          "name": "originManufacturerName",
          "type": "string"
        },
        {
          "name": "originManufacturerInformation",
          "type": "string"
        },
        {
          "name": "originManufacturerLatitude",
          "type": "string"
        },
        {
          "name": "originManufacturerLongitude",
          "type": "string"
        }
      ],
      "payable": false,
      "stateMutability": "view",
      "type": "function"
    },
    {
      "constant": true,
      "inputs": [
        {
          "name": "_upc",
          "type": "uint256"
        }
      ],
      "name": "fetchItemBufferTwo",
      "outputs": [
        {
          "name": "itemSKU",
          "type": "uint256"
        },
        {
          "name": "itemUPC",
          "type": "uint256"
        },
        {
          "name": "productID",
          "type": "uint256"
        },
        {
          "name": "productNotes",
          "type": "string"
        },
        {
          "name": "productPrice",
          "type": "uint256"
        },
        {
          "name": "itemState",
          "type": "uint8"
        },
        {
          "name": "retailerID",
          "type": "address"
        },
        {
          "name": "customerID",
          "type": "address"
        }
      ],
      "payable": false,
      "stateMutability": "view",
      "type": "function"
    }
  ],
  "bytecode": "0x6080604052336000806101000a81548173ffffffffffffffffffffffffffffffffffffffff021916908373ffffffffffffffffffffffffffffffffffffffff1602179055506000809054906101000a900473ffffffffffffffffffffffffffffffffffffffff1673ffffffffffffffffffffffffffffffffffffffff16600073ffffffffffffffffffffffffffffffffffffffff167f5c486528ec3e3f0ea91181cff8116f02bfa350e03b8b6f12e00765adbb5af85c60405160405180910390a3620000da3362000124640100000000026401000000009004565b620000f4336200018e640100000000026401000000009004565b6200010e33620001f8640100000000026401000000009004565b60016005819055506001600481905550620003ba565b620001488160016200026264010000000002620027b8179091906401000000009004565b8073ffffffffffffffffffffffffffffffffffffffff167f561138658ca49a8540dc70dcfe64c9026c1c5b9344642242dd6562970f9c127860405160405180910390a250565b620001b28160026200026264010000000002620027b8179091906401000000009004565b8073ffffffffffffffffffffffffffffffffffffffff167f71ae26cad02663e3d92efd6ec56031a80d74a20c0ab4183faa8bf262261c9baa60405160405180910390a250565b6200021c8160036200026264010000000002620027b8179091906401000000009004565b8073ffffffffffffffffffffffffffffffffffffffff167fcd118a02bd36f224f6f1b93812f78d2bbc2c2dc1bc0f60c176e3b4fe09f1483f60405160405180910390a250565b600073ffffffffffffffffffffffffffffffffffffffff168173ffffffffffffffffffffffffffffffffffffffff16141515156200029f57600080fd5b620002ba828262000325640100000000026401000000009004565b151515620002c757600080fd5b60018260000160008373ffffffffffffffffffffffffffffffffffffffff1673ffffffffffffffffffffffffffffffffffffffff16815260200190815260200160002060006101000a81548160ff0219169083151502179055505050565b60008073ffffffffffffffffffffffffffffffffffffffff168273ffffffffffffffffffffffffffffffffffffffff16141515156200036357600080fd5b8260000160008373ffffffffffffffffffffffffffffffffffffffff1673ffffffffffffffffffffffffffffffffffffffff16815260200190815260200160002060009054906101000a900460ff16905092915050565b6129e880620003ca6000396000f30060806040526004361061013e576000357c0100000000000000000000000000000000000000000000000000000000900463ffffffff16806317d4a4911461014357806328fd5e831461019e5780632d923561146101f9578063339021441461023057806341c0e1b51461025d5780635da09b88146102745780635f8a5afa146102cf57806366225ff914610312578063715018a61461044f57806377c45913146104665780638da5cb5b146106c45780638ec4f5051461071b5780638f32d59b1461075e578063a1cafb261461078d578063a26be99914610938578063ac98e6db14610965578063ad973d741461097c578063d38ea5bf146109bf578063db0e6a2f146109ec578063de07f34e14610a03578063e7fb74c714610a1a578063f2fde38b14610a3a578063f30fc48014610a7d578063f61c899a14610aaa575b600080fd5b34801561014f57600080fd5b50610184600480360381019080803573ffffffffffffffffffffffffffffffffffffffff169060200190929190505050610ad7565b604051808215151515815260200191505060405180910390f35b3480156101aa57600080fd5b506101df600480360381019080803573ffffffffffffffffffffffffffffffffffffffff169060200190929190505050610af4565b604051808215151515815260200191505060405180910390f35b34801561020557600080fd5b5061022e6004803603810190808035906020019092919080359060200190929190505050610b11565b005b34801561023c57600080fd5b5061025b60048036038101908080359060200190929190505050610c66565b005b34801561026957600080fd5b50610272610d9f565b005b34801561028057600080fd5b506102b5600480360381019080803573ffffffffffffffffffffffffffffffffffffffff169060200190929190505050610dfc565b604051808215151515815260200191505060405180910390f35b3480156102db57600080fd5b50610310600480360381019080803573ffffffffffffffffffffffffffffffffffffffff169060200190929190505050610e19565b005b34801561031e57600080fd5b5061033d60048036038101908080359060200190929190505050610ea2565b604051808981526020018881526020018781526020018060200186815260200185600781111561036957fe5b60ff1681526020018473ffffffffffffffffffffffffffffffffffffffff1673ffffffffffffffffffffffffffffffffffffffff1681526020018373ffffffffffffffffffffffffffffffffffffffff1673ffffffffffffffffffffffffffffffffffffffff168152602001828103825287818151815260200191508051906020019080838360005b8381101561040d5780820151818401526020810190506103f2565b50505050905090810190601f16801561043a5780820380516001836020036101000a031916815260200191505b50995050505050505050505060405180910390f35b34801561045b57600080fd5b5061046461107f565b005b34801561047257600080fd5b5061049160048036038101908080359060200190929190505050611151565b604051808981526020018881526020018773ffffffffffffffffffffffffffffffffffffffff1673ffffffffffffffffffffffffffffffffffffffff1681526020018673ffffffffffffffffffffffffffffffffffffffff1673ffffffffffffffffffffffffffffffffffffffff16815260200180602001806020018060200180602001858103855289818151815260200191508051906020019080838360005b8381101561054d578082015181840152602081019050610532565b50505050905090810190601f16801561057a5780820380516001836020036101000a031916815260200191505b50858103845288818151815260200191508051906020019080838360005b838110156105b3578082015181840152602081019050610598565b50505050905090810190601f1680156105e05780820380516001836020036101000a031916815260200191505b50858103835287818151815260200191508051906020019080838360005b838110156106195780820151818401526020810190506105fe565b50505050905090810190601f1680156106465780820380516001836020036101000a031916815260200191505b50858103825286818151815260200191508051906020019080838360005b8381101561067f578082015181840152602081019050610664565b50505050905090810190601f1680156106ac5780820380516001836020036101000a031916815260200191505b509c5050505050505050505050505060405180910390f35b3480156106d057600080fd5b506106d96114e8565b604051808273ffffffffffffffffffffffffffffffffffffffff1673ffffffffffffffffffffffffffffffffffffffff16815260200191505060405180910390f35b34801561072757600080fd5b5061075c600480360381019080803573ffffffffffffffffffffffffffffffffffffffff169060200190929190505050611511565b005b34801561076a57600080fd5b5061077361159a565b604051808215151515815260200191505060405180910390f35b34801561079957600080fd5b5061093660048036038101908080359060200190929190803573ffffffffffffffffffffffffffffffffffffffff169060200190929190803590602001908201803590602001908080601f0160208091040260200160405190810160405280939291908181526020018383808284378201915050505050509192919290803590602001908201803590602001908080601f0160208091040260200160405190810160405280939291908181526020018383808284378201915050505050509192919290803590602001908201803590602001908080601f0160208091040260200160405190810160405280939291908181526020018383808284378201915050505050509192919290803590602001908201803590602001908080601f0160208091040260200160405190810160405280939291908181526020018383808284378201915050505050509192919290803590602001908201803590602001908080601f01602080910402602001604051908101604052809392919081815260200183838082843782019150505050505091929192905050506115f1565b005b34801561094457600080fd5b50610963600480360381019080803590602001909291905050506119a7565b005b34801561097157600080fd5b5061097a611adf565b005b34801561098857600080fd5b506109bd600480360381019080803573ffffffffffffffffffffffffffffffffffffffff169060200190929190505050611aea565b005b3480156109cb57600080fd5b506109ea60048036038101908080359060200190929190505050611b73565b005b3480156109f857600080fd5b50610a01611d56565b005b348015610a0f57600080fd5b50610a18611d61565b005b610a3860048036038101908080359060200190929190505050611d6c565b005b348015610a4657600080fd5b50610a7b600480360381019080803573ffffffffffffffffffffffffffffffffffffffff16906020019092919050505061217d565b005b348015610a8957600080fd5b50610aa86004803603810190808035906020019092919050505061219c565b005b348015610ab657600080fd5b50610ad5600480360381019080803590602001909291905050506122d5565b005b6000610aed82600161240e90919063ffffffff16565b9050919050565b6000610b0a82600361240e90919063ffffffff16565b9050919050565b8160026007811115610b1f57fe5b60066000838152602001908152602001600020600b0160009054906101000a900460ff166007811115610b4e57fe5b141515610b5a57600080fd5b610b6333610ad7565b1515610bd7576040517f08c379a000000000000000000000000000000000000000000000000000000000815260040180806020018281038252601b8152602001807f4163636f756e74206973206e6f74204d616e756661637475726572000000000081525060200191505060405180910390fd5b600360066000858152602001908152602001600020600b0160006101000a81548160ff02191690836007811115610c0a57fe5b02179055508160066000858152602001908152602001600020600a01819055507fa96ae0fc3224ebd79eebfe54bd130cc9cb94416cddd1f2386115e00b72532468836040518082815260200191505060405180910390a1505050565b8060006007811115610c7457fe5b60066000838152602001908152602001600020600b0160009054906101000a900460ff166007811115610ca357fe5b141515610caf57600080fd5b610cb833610ad7565b1515610d2c576040517f08c379a000000000000000000000000000000000000000000000000000000000815260040180806020018281038252601b8152602001807f4163636f756e74206973206e6f74204d616e756661637475726572000000000081525060200191505060405180910390fd5b600160066000848152602001908152602001600020600b0160006101000a81548160ff02191690836007811115610d5f57fe5b02179055507f0336171fb29140c770116f6f4781be5f1a3cb04de9b019c9c8eb7350d67f67a5826040518082815260200191505060405180910390a15050565b610da76114e8565b73ffffffffffffffffffffffffffffffffffffffff163373ffffffffffffffffffffffffffffffffffffffff161415610dfa57610de26114e8565b73ffffffffffffffffffffffffffffffffffffffff16ff5b565b6000610e1282600261240e90919063ffffffff16565b9050919050565b610e2233610ad7565b1515610e96576040517f08c379a000000000000000000000000000000000000000000000000000000000815260040180806020018281038252601b8152602001807f4163636f756e74206973206e6f74204d616e756661637475726572000000000081525060200191505060405180910390fd5b610e9f816124a2565b50565b60008060006060600080600080600660008a8152602001908152602001600020600001549750600660008a8152602001908152602001600020600101549650600660008a8152602001908152602001600020600801549550600660008a81526020019081526020016000206009018054600181600116156101000203166002900480601f016020809104026020016040519081016040528092919081815260200182805460018160011615610100020316600290048015610fa45780601f10610f7957610100808354040283529160200191610fa4565b820191906000526020600020905b815481529060010190602001808311610f8757829003601f168201915b50505050509450600660008a8152602001908152602001600020600a01549350600660008a8152602001908152602001600020600b0160009054906101000a900460ff169250600660008a8152602001908152602001600020600b0160019054906101000a900473ffffffffffffffffffffffffffffffffffffffff169150600660008a8152602001908152602001600020600c0160009054906101000a900473ffffffffffffffffffffffffffffffffffffffff169050878787878787878797509750975097509750975097509750919395975091939597565b61108761159a565b151561109257600080fd5b600073ffffffffffffffffffffffffffffffffffffffff166000809054906101000a900473ffffffffffffffffffffffffffffffffffffffff1673ffffffffffffffffffffffffffffffffffffffff167f5c486528ec3e3f0ea91181cff8116f02bfa350e03b8b6f12e00765adbb5af85c60405160405180910390a360008060006101000a81548173ffffffffffffffffffffffffffffffffffffffff021916908373ffffffffffffffffffffffffffffffffffffffff160217905550565b600080600080606080606080600660008a8152602001908152602001600020600001549750600660008a8152602001908152602001600020600101549650600660008a815260200190815260200160002060020160009054906101000a900473ffffffffffffffffffffffffffffffffffffffff169550600660008a815260200190815260200160002060030160009054906101000a900473ffffffffffffffffffffffffffffffffffffffff169450600660008a81526020019081526020016000206004018054600181600116156101000203166002900480601f0160208091040260200160405190810160405280929190818152602001828054600181600116156101000203166002900480156112ab5780601f10611280576101008083540402835291602001916112ab565b820191906000526020600020905b81548152906001019060200180831161128e57829003601f168201915b50505050509350600660008a81526020019081526020016000206005018054600181600116156101000203166002900480601f01602080910402602001604051908101604052809291908181526020018280546001816001161561010002031660029004801561135c5780601f106113315761010080835404028352916020019161135c565b820191906000526020600020905b81548152906001019060200180831161133f57829003601f168201915b50505050509250600660008a81526020019081526020016000206006018054600181600116156101000203166002900480601f01602080910402602001604051908101604052809291908181526020018280546001816001161561010002031660029004801561140d5780601f106113e25761010080835404028352916020019161140d565b820191906000526020600020905b8154815290600101906020018083116113f057829003601f168201915b50505050509150600660008a81526020019081526020016000206007018054600181600116156101000203166002900480601f0160208091040260200160405190810160405280929190818152602001828054600181600116156101000203166002900480156114be5780601f10611493576101008083540402835291602001916114be565b820191906000526020600020905b8154815290600101906020018083116114a157829003601f168201915b50505050509050878787878787878797509750975097509750975097509750919395975091939597565b60008060009054906101000a900473ffffffffffffffffffffffffffffffffffffffff16905090565b61151a33610dfc565b151561158e576040517f08c379a00000000000000000000000000000000000000000000000000000000081526004018080602001828103825260178152602001807f4163636f756e74206973206e6f742052657461696c657200000000000000000081525060200191505060405180910390fd5b611597816124fc565b50565b60008060009054906101000a900473ffffffffffffffffffffffffffffffffffffffff1673ffffffffffffffffffffffffffffffffffffffff163373ffffffffffffffffffffffffffffffffffffffff1614905090565b6115fa33610ad7565b151561166e576040517f08c379a000000000000000000000000000000000000000000000000000000000815260040180806020018281038252601b8152602001807f4163636f756e74206973206e6f74204d616e756661637475726572000000000081525060200191505060405180910390fd5b6101c06040519081016040528060055481526020018881526020016116916114e8565b73ffffffffffffffffffffffffffffffffffffffff1681526020018773ffffffffffffffffffffffffffffffffffffffff16815260200186815260200185815260200184815260200183815260200188600554018152602001828152602001600081526020016000600781111561170457fe5b8152602001600073ffffffffffffffffffffffffffffffffffffffff168152602001600073ffffffffffffffffffffffffffffffffffffffff1681525060066000898152602001908152602001600020600082015181600001556020820151816001015560408201518160020160006101000a81548173ffffffffffffffffffffffffffffffffffffffff021916908373ffffffffffffffffffffffffffffffffffffffff16021790555060608201518160030160006101000a81548173ffffffffffffffffffffffffffffffffffffffff021916908373ffffffffffffffffffffffffffffffffffffffff1602179055506080820151816004019080519060200190611812929190612917565b5060a082015181600501908051906020019061182f929190612917565b5060c082015181600601908051906020019061184c929190612917565b5060e0820151816007019080519060200190611869929190612917565b506101008201518160080155610120820151816009019080519060200190611892929190612917565b5061014082015181600a015561016082015181600b0160006101000a81548160ff021916908360078111156118c357fe5b021790555061018082015181600b0160016101000a81548173ffffffffffffffffffffffffffffffffffffffff021916908373ffffffffffffffffffffffffffffffffffffffff1602179055506101a082015181600c0160006101000a81548173ffffffffffffffffffffffffffffffffffffffff021916908373ffffffffffffffffffffffffffffffffffffffff1602179055509050506001600554016005819055507fd29d8a68ca7c8c74be5579719d445aabfe230ed6e6a83aff475a663500eb7609876040518082815260200191505060405180910390a150505050505050565b80600560078111156119b557fe5b60066000838152602001908152602001600020600b0160009054906101000a900460ff1660078111156119e457fe5b1415156119f057600080fd5b6119f933610dfc565b1515611a6d576040517f08c379a00000000000000000000000000000000000000000000000000000000081526004018080602001828103825260178152602001807f4163636f756e74206973206e6f742052657461696c657200000000000000000081525060200191505060405180910390fd5b6006806000848152602001908152602001600020600b0160006101000a81548160ff02191690836007811115611a9f57fe5b02179055507fa8142743f8f70a4c26f3691cf4ed59718381fb2f18070ec52be1f1022d855557826040518082815260200191505060405180910390a15050565b611ae833612556565b565b611af333610af4565b1515611b67576040517f08c379a00000000000000000000000000000000000000000000000000000000081526004018080602001828103825260178152602001807f4163636f756e74206973206e6f7420437573746f6d657200000000000000000081525060200191505060405180910390fd5b611b70816125b0565b50565b8060066007811115611b8157fe5b60066000838152602001908152602001600020600b0160009054906101000a900460ff166007811115611bb057fe5b141515611bbc57600080fd5b611bc533610af4565b1515611c39576040517f08c379a00000000000000000000000000000000000000000000000000000000081526004018080602001828103825260178152602001807f4163636f756e74206973206e6f7420437573746f6d657200000000000000000081525060200191505060405180910390fd5b336006600084815260200190815260200160002060020160006101000a81548173ffffffffffffffffffffffffffffffffffffffff021916908373ffffffffffffffffffffffffffffffffffffffff1602179055503360066000848152602001908152602001600020600c0160006101000a81548173ffffffffffffffffffffffffffffffffffffffff021916908373ffffffffffffffffffffffffffffffffffffffff160217905550600760066000848152602001908152602001600020600b0160006101000a81548160ff02191690836007811115611d1657fe5b02179055507f653d56639fee6b566a5c804764e9689de38645f0b733df89a36a1b7b42173dd8826040518082815260200191505060405180910390a15050565b611d5f3361260a565b565b611d6a33612664565b565b8060036007811115611d7a57fe5b60066000838152602001908152602001600020600b0160009054906101000a900460ff166007811115611da957fe5b141515611e1e576040517f08c379a00000000000000000000000000000000000000000000000000000000081526004018080602001828103825260148152602001807f4974656d206973206e6f7420666f722073616c6500000000000000000000000081525060200191505060405180910390fd5b60066000838152602001908152602001600020600a0154803410151515611ead576040517f08c379a00000000000000000000000000000000000000000000000000000000081526004018080602001828103825260138152602001807f496e73756666656369656e7420616d6f756e740000000000000000000000000081525060200191505060405180910390fd5b82600080611eba33610dfc565b1515611f2e576040517f08c379a00000000000000000000000000000000000000000000000000000000081526004018080602001828103825260178152602001807f4163636f756e74206973206e6f742052657461696c657200000000000000000081525060200191505060405180910390fd5b336006600088815260200190815260200160002060020160006101000a81548173ffffffffffffffffffffffffffffffffffffffff021916908373ffffffffffffffffffffffffffffffffffffffff1602179055503360066000888152602001908152602001600020600b0160016101000a81548173ffffffffffffffffffffffffffffffffffffffff021916908373ffffffffffffffffffffffffffffffffffffffff160217905550600460066000888152602001908152602001600020600b0160006101000a81548160ff0219169083600781111561200b57fe5b02179055506006600087815260200190815260200160002060030160009054906101000a900473ffffffffffffffffffffffffffffffffffffffff1673ffffffffffffffffffffffffffffffffffffffff166108fc60066000898152602001908152602001600020600a01549081150290604051600060405180830381858888f193505050501580156120a2573d6000803e3d6000fd5b507f92f64ca637d023f354075a4be751b169c1a8a9ccb6d33cdd0cb3520543995727866040518082815260200191505060405180910390a160066000848152602001908152602001600020600a01549150813403905060066000848152602001908152602001600020600b0160019054906101000a900473ffffffffffffffffffffffffffffffffffffffff1673ffffffffffffffffffffffffffffffffffffffff166108fc829081150290604051600060405180830381858888f19350505050158015612174573d6000803e3d6000fd5b50505050505050565b61218561159a565b151561219057600080fd5b612199816126be565b50565b80600160078111156121aa57fe5b60066000838152602001908152602001600020600b0160009054906101000a900460ff1660078111156121d957fe5b1415156121e557600080fd5b6121ee33610ad7565b1515612262576040517f08c379a000000000000000000000000000000000000000000000000000000000815260040180806020018281038252601b8152602001807f4163636f756e74206973206e6f74204d616e756661637475726572000000000081525060200191505060405180910390fd5b600260066000848152602001908152602001600020600b0160006101000a81548160ff0219169083600781111561229557fe5b02179055507f9b3b66e2380b690bae22c73ef1428fb0c91e72fe14a4b6defa13035214187aff826040518082815260200191505060405180910390a15050565b80600460078111156122e357fe5b60066000838152602001908152602001600020600b0160009054906101000a900460ff16600781111561231257fe5b14151561231e57600080fd5b61232733610ad7565b151561239b576040517f08c379a000000000000000000000000000000000000000000000000000000000815260040180806020018281038252601b8152602001807f4163636f756e74206973206e6f74204d616e756661637475726572000000000081525060200191505060405180910390fd5b600560066000848152602001908152602001600020600b0160006101000a81548160ff021916908360078111156123ce57fe5b02179055507ff00b9a5725b80c54016f42114f6ed7792d22eecb116011c4afac29c57bef6c95826040518082815260200191505060405180910390a15050565b60008073ffffffffffffffffffffffffffffffffffffffff168273ffffffffffffffffffffffffffffffffffffffff161415151561244b57600080fd5b8260000160008373ffffffffffffffffffffffffffffffffffffffff1673ffffffffffffffffffffffffffffffffffffffff16815260200190815260200160002060009054906101000a900460ff16905092915050565b6124b68160016127b890919063ffffffff16565b8073ffffffffffffffffffffffffffffffffffffffff167f561138658ca49a8540dc70dcfe64c9026c1c5b9344642242dd6562970f9c127860405160405180910390a250565b6125108160026127b890919063ffffffff16565b8073ffffffffffffffffffffffffffffffffffffffff167f71ae26cad02663e3d92efd6ec56031a80d74a20c0ab4183faa8bf262261c9baa60405160405180910390a250565b61256a81600361286890919063ffffffff16565b8073ffffffffffffffffffffffffffffffffffffffff167fb4c88a9c5cd906354abdd1cc29e4f94c6c4de90754fb80ce51e6a33417bc81b660405160405180910390a250565b6125c48160036127b890919063ffffffff16565b8073ffffffffffffffffffffffffffffffffffffffff167fcd118a02bd36f224f6f1b93812f78d2bbc2c2dc1bc0f60c176e3b4fe09f1483f60405160405180910390a250565b61261e81600261286890919063ffffffff16565b8073ffffffffffffffffffffffffffffffffffffffff167fdb7176e79cffef81cb01767dd0447a0b24bb72ca9778d4b245581086b2a7e6db60405160405180910390a250565b61267881600161286890919063ffffffff16565b8073ffffffffffffffffffffffffffffffffffffffff167f2fed5abf6a80d6dfe30b4895481b2fc5d7dce5f8f7b931832f4a2947d5040c7f60405160405180910390a250565b600073ffffffffffffffffffffffffffffffffffffffff168173ffffffffffffffffffffffffffffffffffffffff16141515156126fa57600080fd5b8073ffffffffffffffffffffffffffffffffffffffff166000809054906101000a900473ffffffffffffffffffffffffffffffffffffffff1673ffffffffffffffffffffffffffffffffffffffff167f5c486528ec3e3f0ea91181cff8116f02bfa350e03b8b6f12e00765adbb5af85c60405160405180910390a3806000806101000a81548173ffffffffffffffffffffffffffffffffffffffff021916908373ffffffffffffffffffffffffffffffffffffffff16021790555050565b600073ffffffffffffffffffffffffffffffffffffffff168173ffffffffffffffffffffffffffffffffffffffff16141515156127f457600080fd5b6127fe828261240e565b15151561280a57600080fd5b60018260000160008373ffffffffffffffffffffffffffffffffffffffff1673ffffffffffffffffffffffffffffffffffffffff16815260200190815260200160002060006101000a81548160ff0219169083151502179055505050565b600073ffffffffffffffffffffffffffffffffffffffff168173ffffffffffffffffffffffffffffffffffffffff16141515156128a457600080fd5b6128ae828261240e565b15156128b957600080fd5b60008260000160008373ffffffffffffffffffffffffffffffffffffffff1673ffffffffffffffffffffffffffffffffffffffff16815260200190815260200160002060006101000a81548160ff0219169083151502179055505050565b828054600181600116156101000203166002900490600052602060002090601f016020900481019282601f1061295857805160ff1916838001178555612986565b82800160010185558215612986579182015b8281111561298557825182559160200191906001019061296a565b5b5090506129939190612997565b5090565b6129b991905b808211156129b557600081600090555060010161299d565b5090565b905600a165627a7a723058203d82689cbe63ca4fe45de0d315dc84271cfba65fea7b809af69ec5fbbf0c53d60029",
  "source": "pragma solidity ^0.4.24;\r\n\r\nimport \"../coffeeaccesscontrol/CustomerRole.sol\";\r\nimport \"../coffeeaccesscontrol/RetailerRole.sol\";\r\nimport \"../coffeeaccesscontrol/ManufacturerRole.sol\";\r\nimport \"../coffeecore/Ownable.sol\";\r\n\r\n// Define a contract 'Supplychain'\r\ncontract SupplyChain is Ownable, ManufacturerRole, RetailerRole, CustomerRole {\r\n\r\n  // Define a variable called 'upc' for Universal Product Code (UPC)\r\n  uint  upc;\r\n\r\n  // Define a variable called 'sku' for Stock Keeping Unit (SKU)\r\n  uint  sku;\r\n\r\n  // Define a public mapping 'items' that maps the UPC to an Item.\r\n  mapping (uint => Item) items;\r\n\r\n  // Define a public mapping 'itemsHistory' that maps the UPC to an array of TxHash, \r\n  // that track its journey through the supply chain -- to be sent from DApp.\r\n  mapping (uint => string[]) itemsHistory;\r\n  \r\n  // Define enum 'State' with the following values:\r\n  enum State \r\n  { \r\n    Manufactured,  // 0\r\n    Assembled,  // 1\r\n    Packed,     // 2\r\n    ForSale,    // 3\r\n    Sold,       // 4\r\n    Shipped,    // 5\r\n    Received,   // 6\r\n    Purchased   // 7\r\n    }\r\n\r\n  State constant defaultState = State.Manufactured;\r\n\r\n  // Define a struct 'Item' with the following fields:\r\n  struct Item {\r\n    uint    sku;  // Stock Keeping Unit (SKU)\r\n    uint    upc; // Universal Product Code (UPC), generated by the Farmer, goes on the package, can be verified by the Consumer\r\n    address ownerID;  // Metamask-Ethereum address of the current owner as the product moves through 8 stages\r\n    address originManufacturerID; // Metamask-Ethereum address of the Manufacturer\r\n    string  originManufacturerName; // Manufacturer Name\r\n    string  originManufacturerInformation;  // Factory Information\r\n    string  originManufacturerLatitude; // Factory Latitude\r\n    string  originManufacturerLongitude;  // Factory Longitude\r\n    uint    productID;  // Product ID potentially a combination of upc + sku\r\n    string  productNotes; // Product Notes\r\n    uint    productPrice; // Product Price\r\n    State   itemState;  // Product State as represented in the enum above\r\n    address retailerID; // Metamask-Ethereum address of the Retailer\r\n    address customerID; // Metamask-Ethereum address of the Customer\r\n  }\r\n\r\n  // Define 8 events with the same 8 state values and accept 'upc' as input argument\r\n  event Manufactured(uint upc);\r\n  event Assembled(uint upc);\r\n  event Packed(uint upc);\r\n  event ForSale(uint upc);\r\n  event Sold(uint upc);\r\n  event Shipped(uint upc);\r\n  event Received(uint upc);\r\n  event Purchased(uint upc);\r\n\r\n  // Define a modifer that verifies the Caller\r\n  modifier verifyCaller (address _address) {\r\n    require(msg.sender == _address); \r\n    _;\r\n  }\r\n\r\n  // Define a modifier that checks if the paid amount is sufficient to cover the price\r\n  modifier paidEnough(uint _price) { \r\n    require(msg.value >= _price, \"Insuffecient amount\"); \r\n    _;\r\n  }\r\n  \r\n  // Define a modifier that checks the price and refunds the remaining balance\r\n  modifier checkValue(uint _upc) {\r\n    _;\r\n    uint _price = items[_upc].productPrice;\r\n    uint amountToReturn = msg.value - _price;\r\n    items[_upc].retailerID.transfer(amountToReturn);\r\n  }\r\n\r\n  // Define a modifier that checks if an item.state of a upc is Manufactured\r\n  modifier manufactured(uint _upc) {\r\n    require(items[_upc].itemState == State.Manufactured);\r\n    _;\r\n  }\r\n\r\n  // Define a modifier that checks if an item.state of a upc is Assembled\r\n  modifier assembled(uint _upc) {\r\n    require(items[_upc].itemState == State.Assembled);\r\n    _;\r\n  }\r\n  \r\n  // Define a modifier that checks if an item.state of a upc is Packed\r\n  modifier packed(uint _upc) {\r\n    require(items[_upc].itemState == State.Packed);\r\n    _;\r\n  }\r\n\r\n  // Define a modifier that checks if an item.state of a upc is ForSale\r\n  modifier forSale(uint _upc) {\r\n    require(items[_upc].itemState == State.ForSale, \"Item is not for sale\");\r\n    _;\r\n  }\r\n\r\n  // Define a modifier that checks if an item.state of a upc is Sold\r\n  modifier sold(uint _upc) {\r\n    require(items[_upc].itemState == State.Sold);\r\n    _;\r\n  }\r\n  \r\n  // Define a modifier that checks if an item.state of a upc is Shipped\r\n  modifier shipped(uint _upc) {\r\n    require(items[_upc].itemState == State.Shipped);\r\n    _;\r\n  }\r\n\r\n  // Define a modifier that checks if an item.state of a upc is Received\r\n  modifier received(uint _upc) {\r\n    require(items[_upc].itemState == State.Received);\r\n    _;\r\n  }\r\n\r\n  // Define a modifier that checks if an item.state of a upc is Purchased\r\n  modifier purchased(uint _upc) {\r\n    require(items[_upc].itemState == State.Purchased);\r\n    _;\r\n  }\r\n\r\n  // In the constructor set 'owner' to the address that instantiated the contract\r\n  // and set 'sku' to 1\r\n  // and set 'upc' to 1\r\n  constructor() public payable {\r\n    sku = 1;\r\n    upc = 1;\r\n  }\r\n\r\n  // Define a function 'kill' if required\r\n  function kill() public {\r\n    if (msg.sender == owner()) {\r\n      selfdestruct(owner());\r\n    }\r\n  }\r\n\r\n  // Define a function 'manufactureItem' that allows a manufacturer to mark an item 'Manufactured'\r\n  function manufactureItem(uint _upc, address _originManufacturerID, string _originManufacturerName, string _originManufacturerInformation, string  _originManufacturerLatitude, string  _originManufacturerLongitude, string  _productNotes) public onlyManufacturer\r\n  {\r\n    // Add the new item as part of Manufactured\r\n    \r\n    items[_upc] = Item({\r\n        sku: sku, \r\n        upc: _upc, \r\n        ownerID: owner(),\r\n        originManufacturerID: _originManufacturerID,\r\n        originManufacturerName: _originManufacturerName,\r\n        originManufacturerInformation: _originManufacturerInformation,\r\n        originManufacturerLatitude: _originManufacturerLatitude,\r\n        originManufacturerLongitude: _originManufacturerLongitude,\r\n        productID: sku + _upc,\r\n        productPrice: 0,\r\n        productNotes: _productNotes,\r\n        itemState: defaultState,\r\n        retailerID: address(0),\r\n        customerID: address(0)\r\n    });\r\n    \r\n    // Increment sku\r\n    sku = sku + 1;\r\n    // Emit the appropriate event\r\n    emit Manufactured(_upc);\r\n  }\r\n\r\n  // Define a function 'assembleItem' that allows a farmer to mark an item 'Assembled'\r\n  function assembleItem(uint _upc) public \r\n  // Call modifier to check if upc has passed previous supply chain stage\r\n    manufactured(_upc)\r\n  // Call modifier to verify caller of this function\r\n    onlyManufacturer\r\n  {\r\n    // Update the appropriate fields\r\n    items[_upc].itemState = State.Assembled;\r\n    \r\n    // Emit the appropriate event\r\n    emit Assembled(_upc);\r\n  }\r\n\r\n  // Define a function 'packItem' that allows a farmer to mark an item 'Packed'\r\n  function packItem(uint _upc) public \r\n  // Call modifier to check if upc has passed previous supply chain stage\r\n    assembled(_upc)\r\n  // Call modifier to verify caller of this function\r\n    onlyManufacturer\r\n  {\r\n    // Update the appropriate fields\r\n    items[_upc].itemState = State.Packed;\r\n    // Emit the appropriate event\r\n    emit Packed(_upc);\r\n  }\r\n\r\n  // Define a function 'sellItem' that allows a farmer to mark an item 'ForSale'\r\n  function sellItem(uint _upc, uint _price) public \r\n  // Call modifier to check if upc has passed previous supply chain stage\r\n    packed(_upc)\r\n  // Call modifier to verify caller of this function\r\n    onlyManufacturer\r\n  {\r\n    // Update the appropriate fields\r\n    items[_upc].itemState = State.ForSale;\r\n    items[_upc].productPrice = _price;\r\n    // Emit the appropriate event\r\n    emit ForSale(_upc);\r\n  }\r\n\r\n  // Define a function 'buyItem' that allows the retailer to mark an item 'Sold'\r\n  // Use the above defined modifiers to check if the item is available for sale, if the buyer has paid enough, \r\n  // and any excess ether sent is refunded back to the buyer\r\n  function buyItem(uint _upc) public payable \r\n    // Call modifier to check if upc has passed previous supply chain stage\r\n    forSale(_upc)\r\n    // Call modifer to check if buyer has paid enough\r\n    paidEnough(items[_upc].productPrice)\r\n    // Call modifer to send any excess ether back to buyer\r\n    checkValue(_upc) \r\n    // only retailer\r\n    onlyRetailer\r\n    {\r\n    \r\n    // Update the appropriate fields - ownerID, retailerID, itemState\r\n    items[_upc].ownerID = msg.sender;\r\n    items[_upc].retailerID = msg.sender;\r\n    items[_upc].itemState = State.Sold;\r\n    // Transfer money to manufacturer\r\n    items[_upc].originManufacturerID.transfer(items[_upc].productPrice);\r\n    // emit the appropriate event\r\n    emit Sold(_upc);\r\n  }\r\n\r\n  // Define a function 'shipItem' that allows the manufacturer to mark an item 'Shipped'\r\n  // Use the above modifers to check if the item is sold\r\n  function shipItem(uint _upc) public \r\n    // Call modifier to check if upc has passed previous supply chain stage\r\n    sold(_upc)\r\n    // Call modifier to verify caller of this function\r\n    onlyManufacturer\r\n    {\r\n    // Update the appropriate fields\r\n    items[_upc].itemState = State.Shipped;\r\n    // Emit the appropriate event\r\n    emit Shipped(_upc);\r\n  }\r\n\r\n  // Define a function 'receiveItem' that allows the retailer to mark an item 'Received'\r\n  // Use the above modifiers to check if the item is shipped\r\n  function receiveItem(uint _upc) public \r\n    // Call modifier to check if upc has passed previous supply chain stage\r\n    shipped(_upc)\r\n    // Access Control List enforced by calling Smart Contract / DApp\r\n    onlyRetailer\r\n    {\r\n    // Update the appropriate fields - itemState\r\n    items[_upc].itemState = State.Received;\r\n    // Emit the appropriate event\r\n    emit Received(_upc);\r\n  }\r\n\r\n  // Define a function 'purchaseItem' that allows the customer to mark an item 'Purchased'\r\n  // Use the above modifiers to check if the item is received\r\n  function purchaseItem(uint _upc) public \r\n    // Call modifier to check if upc has passed previous supply chain stage\r\n    received(_upc)\r\n    // Access Control List enforced by calling Smart Contract / DApp\r\n    onlyCustomer\r\n    {\r\n    // Update the appropriate fields - ownerID, customerID, itemState\r\n        items[_upc].ownerID = msg.sender;\r\n        items[_upc].customerID = msg.sender;\r\n        items[_upc].itemState = State.Purchased;\r\n    // Emit the appropriate event\r\n        emit Purchased(_upc);\r\n  }\r\n\r\n  // Define a function 'fetchItemBufferOne' that fetches the data\r\n  function fetchItemBufferOne(uint _upc) public view returns \r\n  (\r\n  uint    itemSKU,\r\n  uint    itemUPC,\r\n  address ownerID,\r\n  address originManufacturerID,\r\n  string  originManufacturerName,\r\n  string  originManufacturerInformation,\r\n  string  originManufacturerLatitude,\r\n  string  originManufacturerLongitude\r\n  ) \r\n  {\r\n  // Assign values to the 8 parameters\r\n  itemSKU = items[_upc].sku;\r\n  itemUPC = items[_upc].upc;\r\n  ownerID = items[_upc].ownerID;\r\n  originManufacturerID = items[_upc].originManufacturerID;\r\n  originManufacturerName = items[_upc].originManufacturerName;\r\n  originManufacturerInformation = items[_upc].originManufacturerInformation;\r\n  originManufacturerLatitude = items[_upc].originManufacturerLatitude;\r\n  originManufacturerLongitude = items[_upc].originManufacturerLongitude;\r\n  \r\n  return \r\n  (\r\n  itemSKU,\r\n  itemUPC,\r\n  ownerID,\r\n  originManufacturerID,\r\n  originManufacturerName,\r\n  originManufacturerInformation,\r\n  originManufacturerLatitude,\r\n  originManufacturerLongitude\r\n  );\r\n  }\r\n\r\n  // Define a function 'fetchItemBufferTwo' that fetches the data\r\n  function fetchItemBufferTwo(uint _upc) public view returns \r\n  (\r\n  uint    itemSKU,\r\n  uint    itemUPC,\r\n  uint    productID,\r\n  string  productNotes,\r\n  uint    productPrice,\r\n  State    itemState,\r\n  address retailerID,\r\n  address customerID\r\n  ) \r\n  {\r\n    // Assign values to the 8 parameters\r\n    itemSKU = items[_upc].sku;\r\n    itemUPC = items[_upc].upc;\r\n    productID = items[_upc].productID;\r\n    productNotes = items[_upc].productNotes;\r\n    productPrice = items[_upc].productPrice;\r\n    itemState = items[_upc].itemState;\r\n    retailerID = items[_upc].retailerID;\r\n    customerID = items[_upc].customerID;\r\n\r\n  \r\n    \r\n  return \r\n  (\r\n  itemSKU,\r\n  itemUPC,\r\n  productID,\r\n  productNotes,\r\n  productPrice,\r\n  itemState,\r\n  retailerID,\r\n  customerID\r\n  );\r\n  }\r\n}\r\n",
  "sourcePath": "C:\\Users\\murad.makhashin\\Desktop\\nd1309-Project-6b-Example-Template\\project-6\\contracts\\coffeebase\\SupplyChain.sol",
  "compiler": {
    "name": "solc",
    "version": "0.4.25+commit.59dbf8f1.Emscripten.clang"
  },
  "schemaVersion": "2.0.2",
  "updatedAt": "2019-03-17T07:22:04.071Z"
}